{
  "transactions": [
    {
      "hash": "0xe9d61ff553998ddac33350e966c8b043add2928d74406887f8f27a94f0d47551",
      "transactionType": "CALL",
      "contractName": null,
      "contractAddress": "0x6faafc7dee5d502e5cbdd3b2be3ba1db0e1a8f23",
      "function": "mintNft(string)",
      "arguments": [
        "ipfs://bafybeihdavyyietihutnrol7s2mw564xis2tasj7evm7tkw6idm6mxjbpe/4.json"
      ],
      "transaction": {
        "from": "0xa6cb7db04c7196012b8710952deca5599546d354",
        "to": "0x6faafc7dee5d502e5cbdd3b2be3ba1db0e1a8f23",
        "gas": "0x47ca2",
        "value": "0x0",
        "input": "0xda86f4a900000000000000000000000000000000000000000000000000000000000000200000000000000000000000000000000000000000000000000000000000000049697066733a2f2f62616679626569686461767979696574696875746e726f6c3773326d77353634786973327461736a3765766d37746b773669646d366d786a6270652f342e6a736f6e0000000000000000000000000000000000000000000000",
        "nonce": "0x99",
        "chainId": "0xaa36a7"
      },
      "additionalContracts": [],
      "isFixedGasLimit": false
    }
  ],
  "receipts": [
    {
      "status": "0x1",
      "cumulativeGasUsed": "0x35de156",
      "logs": [
        {
          "address": "0x6faafc7dee5d502e5cbdd3b2be3ba1db0e1a8f23",
          "topics": [
            "0xddf252ad1be2c89b69c2b068fc378daa952ba7f163c4a11628f55a4df523b3ef",
            "0x0000000000000000000000000000000000000000000000000000000000000000",
            "0x000000000000000000000000a6cb7db04c7196012b8710952deca5599546d354",
            "0x0000000000000000000000000000000000000000000000000000000000000000"
          ],
          "data": "0x",
          "blockHash": "0xa0da7da0e6b0528c9ff63f500d71425b260072e541e7ab20dabe4f4487e05327",
          "blockNumber": "0x98c161",
          "blockTimestamp": "0x69615d20",
          "transactionHash": "0xe9d61ff553998ddac33350e966c8b043add2928d74406887f8f27a94f0d47551",
          "transactionIndex": "0x45",
          "logIndex": "0x306",
          "removed": false
        }
      ],
      "logsBloom": "0x00000000000000000000000000000000000000000000000000008000000000000000000000040000000000000000000000000000000000000000000000000000000000000000000000000008000000000000000000000000000000000000000000000000020040000000000000000800000000000000000000000010000000000000040000000000000000000000000000000000000000000000000000000000000000000008000000000000000000000000000000000000000000000000000000000002000000000000000000000000000000000020000000000000000020000000000000000000000000000000000000000000000000000000000000000000",
      "type": "0x2",
      "transactionHash": "0xe9d61ff553998ddac33350e966c8b043add2928d74406887f8f27a94f0d47551",
      "transactionIndex": "0x45",
      "blockHash": "0xa0da7da0e6b0528c9ff63f500d71425b260072e541e7ab20dabe4f4487e05327",
      "blockNumber": "0x98c161",
      "gasUsed": "0x33f98",
      "effectiveGasPrice": "0x14da4e0",
      "from": "0xa6cb7db04c7196012b8710952deca5599546d354",
      "to": "0x6faafc7dee5d502e5cbdd3b2be3ba1db0e1a8f23",
      "contractAddress": null
    }
  ],
  "libraries": [],
  "pending": [],
  "returns": {},
  "timestamp": 1767988514934,
  "chain": 11155111,
  "commit": null
}