{
  "transactions": [
    {
      "hash": "0x336356f8550dc33106ff37ab997fb1c3a7bf9d173dabafc671dd89ee0cda8a56",
      "transactionType": "CALL",
      "contractName": null,
      "contractAddress": "0xde36cb3468858a08f56633039ac86b72b0a4e3df",
      "function": "mintNft(string)",
      "arguments": [
        "ipfs://bafybeihdavyyietihutnrol7s2mw564xis2tasj7evm7tkw6idm6mxjbpe/4.json"
      ],
      "transaction": {
        "from": "0xa6cb7db04c7196012b8710952deca5599546d354",
        "to": "0xde36cb3468858a08f56633039ac86b72b0a4e3df",
        "gas": "0x3c41c",
        "value": "0x0",
        "input": "0xda86f4a900000000000000000000000000000000000000000000000000000000000000200000000000000000000000000000000000000000000000000000000000000049697066733a2f2f62616679626569686461767979696574696875746e726f6c3773326d77353634786973327461736a3765766d37746b773669646d366d786a6270652f342e6a736f6e0000000000000000000000000000000000000000000000",
        "nonce": "0x9f",
        "chainId": "0xaa36a7"
      },
      "additionalContracts": [],
      "isFixedGasLimit": false
    }
  ],
  "receipts": [
    {
      "status": "0x1",
      "cumulativeGasUsed": "0x43db9e",
      "logs": [
        {
          "address": "0xde36cb3468858a08f56633039ac86b72b0a4e3df",
          "topics": [
            "0xddf252ad1be2c89b69c2b068fc378daa952ba7f163c4a11628f55a4df523b3ef",
            "0x0000000000000000000000000000000000000000000000000000000000000000",
            "0x000000000000000000000000a6cb7db04c7196012b8710952deca5599546d354",
            "0x0000000000000000000000000000000000000000000000000000000000000004"
          ],
          "data": "0x",
          "blockHash": "0x00fe03a357fd63310873cc864413ffee503948c257390ada471071f5fdb379c9",
          "blockNumber": "0x98c1a8",
          "blockTimestamp": "0x696160e0",
          "transactionHash": "0x336356f8550dc33106ff37ab997fb1c3a7bf9d173dabafc671dd89ee0cda8a56",
          "transactionIndex": "0x1b",
          "logIndex": "0x45",
          "removed": false
        }
      ],
      "logsBloom": "0x00000000000000000000000000000000000000000000000000008000000000000000000000040000000000000000000000000000000000000000000000000000000000000000000000000008000000000000000000000000000000000000000008000000020000000000040000000800000000000000000000000010000000000000040000000000000000000000000000000000000000000000000000000000000000000000000000000000000000000000200000000000002000000000000000000002000000000000000000000000000800008000000000000000000020000000000000000000000000000000000000000000000000000000000000000000",
      "type": "0x2",
      "transactionHash": "0x336356f8550dc33106ff37ab997fb1c3a7bf9d173dabafc671dd89ee0cda8a56",
      "transactionIndex": "0x1b",
      "blockHash": "0x00fe03a357fd63310873cc864413ffee503948c257390ada471071f5fdb379c9",
      "blockNumber": "0x98c1a8",
      "gasUsed": "0x2ba00",
      "effectiveGasPrice": "0x138925f",
      "from": "0xa6cb7db04c7196012b8710952deca5599546d354",
      "to": "0xde36cb3468858a08f56633039ac86b72b0a4e3df",
      "contractAddress": null
    }
  ],
  "libraries": [],
  "pending": [],
  "returns": {},
  "timestamp": 1767989473448,
  "chain": 11155111,
  "commit": null
}