{
  "transactions": [
    {
      "hash": "0xc91e496c92965bf8b291d3e759e4a9d3d1aae544bb6d6bdf8a75665fb65f2c04",
      "transactionType": "CALL",
      "contractName": null,
      "contractAddress": "0xde36cb3468858a08f56633039ac86b72b0a4e3df",
      "function": "mintNft(string)",
      "arguments": [
        "ipfs://bafybeihdavyyietihutnrol7s2mw564xis2tasj7evm7tkw6idm6mxjbpe/2.json"
      ],
      "transaction": {
        "from": "0xa6cb7db04c7196012b8710952deca5599546d354",
        "to": "0xde36cb3468858a08f56633039ac86b72b0a4e3df",
        "gas": "0x3c41c",
        "value": "0x0",
        "input": "0xda86f4a900000000000000000000000000000000000000000000000000000000000000200000000000000000000000000000000000000000000000000000000000000049697066733a2f2f62616679626569686461767979696574696875746e726f6c3773326d77353634786973327461736a3765766d37746b773669646d366d786a6270652f322e6a736f6e0000000000000000000000000000000000000000000000",
        "nonce": "0x9d",
        "chainId": "0xaa36a7"
      },
      "additionalContracts": [],
      "isFixedGasLimit": false
    }
  ],
  "receipts": [
    {
      "status": "0x1",
      "cumulativeGasUsed": "0xd434d4",
      "logs": [
        {
          "address": "0xde36cb3468858a08f56633039ac86b72b0a4e3df",
          "topics": [
            "0xddf252ad1be2c89b69c2b068fc378daa952ba7f163c4a11628f55a4df523b3ef",
            "0x0000000000000000000000000000000000000000000000000000000000000000",
            "0x000000000000000000000000a6cb7db04c7196012b8710952deca5599546d354",
            "0x0000000000000000000000000000000000000000000000000000000000000002"
          ],
          "data": "0x",
          "blockHash": "0x05c7092c40846f7fb1fbe0a2aafc69c9abbc24adfae27df0664769b1ed2cb187",
          "blockNumber": "0x98c191",
          "blockTimestamp": "0x69615fc0",
          "transactionHash": "0xc91e496c92965bf8b291d3e759e4a9d3d1aae544bb6d6bdf8a75665fb65f2c04",
          "transactionIndex": "0x38",
          "logIndex": "0x8e",
          "removed": false
        }
      ],
      "logsBloom": "0x04000000000000000000000000000000000000000000000000008000000000000000000000040000000000000000000000000000000000000000000000000000000000000000000000000008000000000000000000000000000000000000000000000000020000000000040000000800000000000000000000000010000000000000040000000000000000000000000000000000000000000000000000000000000000000000000000000100000000000000200000000000000000000000000000000002000000000000000000000000000800000000000000000000000020000000000000000000000000000000000000000000008000000000000000000000",
      "type": "0x2",
      "transactionHash": "0xc91e496c92965bf8b291d3e759e4a9d3d1aae544bb6d6bdf8a75665fb65f2c04",
      "transactionIndex": "0x38",
      "blockHash": "0x05c7092c40846f7fb1fbe0a2aafc69c9abbc24adfae27df0664769b1ed2cb187",
      "blockNumber": "0x98c191",
      "gasUsed": "0x2ba00",
      "effectiveGasPrice": "0x132306c",
      "from": "0xa6cb7db04c7196012b8710952deca5599546d354",
      "to": "0xde36cb3468858a08f56633039ac86b72b0a4e3df",
      "contractAddress": null
    }
  ],
  "libraries": [],
  "pending": [],
  "returns": {},
  "timestamp": 1767989186310,
  "chain": 11155111,
  "commit": null
}